S00E00006661646572432E73726563D1
S11300000C9434000C943E000C943E000C943E007E
S11300100C943E000C943E000C943E000C943E0064
S11300200C943E000C943E000C943E000C943E0054
S11300300C943E000C943E000C943E000C943E0044
S11300400C943E000C943E000C943E000C943E0034
S11300500C943E000C943E000C943E000C943E0024
S11300600C943E000C943E0011241FBECFEFD8E048
S1130070DEBFCDBF0E9440000C9462000C940000CF
S11300808AB180628AB985B5877F85BD84B583606E
S113009084BD84B58F7C806284BD85B58877836098
S11300A085BD8FEF90E00BC088BD2FEF30E742E0B5
S11300B0215030404040E1F700C000000A979923E6
S10B00C09CF7EFCFF894FFCF89
S9030000FC
