:100000000C9434000C943E000C943E000C943E0082
:100010000C943E000C943E000C943E000C943E0068
:100020000C943E000C943E000C943E000C943E0058
:100030000C943E000C943E000C943E000C943E0048
:100040000C943E000C943E000C943E000C943E0038
:100050000C943E000C943E000C943E000C943E0028
:100060000C943E000C943E0011241FBECFEFD8E04C
:10007000DEBFCDBF0E9440000C945E000C940000D7
:1000800084B1806284B9E1E8F0E08081836080839C
:1000900080EB9CE39093850080938400B09BFECF1F
:1000A00095B180E2892785B980EB9CE39093850028
:1000B0008093840086B3816086BBF0CFF894FFCF35
:00000001FF
