:100000000C9434000C943E000C943E000C943E0082
:100010000C943E000C943E000C943E000C943E0068
:100020000C943E000C943E000C943E000C943E0058
:100030000C943E000C943E000C943E000C943E0048
:100040000C943E000C943E000C943E000C943E0038
:100050000C943E000C943E000C943E000C943E0028
:100060000C943E000C943E0011241FBECFEFD8E04C
:10007000DEBFCDBF0E9440000C945A000C940000DB
:1000800084B1816084B98AB18F7E8AB98BB1806175
:100090008BB985B5866085BD8AEF86BDA89BFECFEE
:1000A00095B181E0892785B98AEF86BD85B38160E6
:0800B00085BBF4CFF894FFCFEB
:00000001FF
