:100000000C9434000C943E000C943E000C943E0082
:100010000C943E000C943E000C943E000C943E0068
:100020000C943E000C943E000C943E000C943E0058
:100030000C943E000C943E000C943E000C943E0048
:100040000C943E000C943E000C943E000C943E0038
:100050000C943E000C943E000C943E000C943E0028
:100060000C943E000C943E0011241FBECFEFD8E04C
:10007000DEBFCDBF0E9440000C945C000C940000D9
:1000800084B1816084B985B1816085B98AB18B7F83
:100090008AB98BB184608BB94A99FECF95B181E062
:1000A000892785B92FEF83EC99E02150804090405B
:0C00B000E1F700C00000F0CFF894FFCF93
:00000001FF
