S0200000657874496E746572757074626173656454726967676572432E7372656342
S11300000C9434000C9461000C943E000C943E005B
S11300100C943E000C943E000C943E000C943E0064
S11300200C943E000C943E000C943E000C943E0054
S11300300C943E000C943E000C943E000C943E0044
S11300400C943E000C943E000C943E000C943E0034
S11300500C943E000C943E000C943E000C943E0024
S11300600C943E000C943E0011241FBECFEFD8E048
S1130070DEBFCDBF0E9440000C9473000C940000BE
S113008084B1816284B98AB18B7F8AB98BB184606F
S11300908BB9E9E6F0E080818C7F826080838DB348
S11300A081608DBB789495B180E2892785B92FEF63
S11300B083EC99E0215080409040E1F700C00000BB
S11300C0F2CF1F920F920FB60F9211248F939F932A
S11300D095B181E0892785B99F918F910F900FBECB
S10D00E00F901F901895F894FFCFBD
S9030000FC
