:100000000C9434000C943E000C943E000C943E0082
:100010000C943E000C943E000C943E000C943E0068
:100020000C943E000C943E000C943E000C943E0058
:100030000C943E000C9455000C943E000C943E0031
:100040000C943E000C943E000C943E000C943E0038
:100050000C943E000C943E000C943E000C943E0028
:100060000C943E000C943E0011241FBECFEFD8E04C
:10007000DEBFCDBF0E9440000C946D000C940000C8
:1000800084B1806284B9E1E8F0E08081836080839C
:1000900080EB9CE39093850080938400EFE6F0E092
:1000A0008081816080837894FFCF1F920F920FB67A
:1000B0000F9211248F939F9395B180E2892785B980
:1000C00080EB9CE390938500809384009F918F91B7
:0E00D0000F900FBE0F901F901895F894FFCF61
:00000001FF
