:100000000C9434000C943E000C943E000C943E0082
:100010000C943E000C943E000C943E000C943E0068
:100020000C943E000C943E000C943E000C943E0058
:100030000C943E000C943E000C943E000C943E0048
:100040000C943E000C943E000C943E000C943E0038
:100050000C943E000C943E000C943E000C943E0028
:100060000C943E000C943E0011241FBECFEFD8E04C
:10007000DEBFCDBF0E9440000C9484000C940000B1
:1000800084B1816084B920E030E01AC085B181601C
:1000900085B94FEF81EE94E0415080409040E1F708
:1000A00000C0000085B18E7F85B94FEF81EE94E0EE
:1000B000415080409040E1F700C000002F5F3F4F6B
:1000C000233031051CF320E030E01AC085B1816097
:1000D00085B94FEF83EC99E0415080409040E1F7C3
:1000E00000C0000085B18E7F85B94FEF83EC99E0A9
:1000F000415080409040E1F700C000002F5F3F4F2B
:0C010000233031051CF3BFCFF894FFCF73
:00000001FF
