:100000000C9434000C943E000C943E000C943E0082
:100010000C943E000C943E000C943E000C943E0068
:100020000C943E000C943E000C943E000C943E0058
:100030000C943E000C943E000C943E000C943E0048
:100040000C943E000C943E000C943E000C943E0038
:100050000C943E000C943E000C943E000C943E0028
:100060000C943E000C943E0011241FBECFEFD8E04C
:10007000DEBFCDBF0E9440000C945D000C940000D8
:1000800084B1816284B98AB18B7F8AB98BB1846073
:100090008BB995B180E2892785B92FEF83EC99E080
:1000A000215080409040E1F700C000004A99F1CF14
:0E00B00095B181E0892785B9ECCFF894FFCF98
:00000001FF
