S00E00006661646572432E73726563D1
S11300000C9434000C943E000C943E000C943E007E
S11300100C943E000C943E000C943E000C943E0064
S11300200C943E000C943E000C943E000C943E0054
S11300300C943E000C943E000C943E000C943E0044
S11300400C943E000C943E000C943E000C943E0034
S11300500C943E000C943E000C943E000C943E0024
S11300600C943E000C943E0011241FBECFEFD8E048
S1130070DEBFCDBF0E9440000C9481000C940000B0
S11300808AB180648AB984B1826084B985B58B7F72
S113009085BD84B5836084BD84B58F73806884BD59
S11300A085B5887F856085BDE1E8F0E080818B7F40
S11300B08083A0E8B0E08C9183608C938C918F73E3
S11300C080688C938081887F8360808380E090E067
S11300D013C087BD2FEF30E0281B390B3093890004
S11300E0209388002FEF33EF41E02150304040400F
S11300F0E1F700C0000005968F3F910551F34CF3E2
S1090100E5CFF894FFCFE7
S9030000FC
