:100000000C9434000C943E000C943E000C943E0082
:100010000C943E000C943E000C943E000C943E0068
:100020000C943E000C943E000C943E000C943E0058
:100030000C943E000C943E000C943E000C943E0048
:100040000C943E000C943E000C943E000C943E0038
:100050000C943E000C943E000C943E000C943E0028
:100060000C943E000C943E0011241FBECFEFD8E04C
:10007000DEBFCDBF0E9440000C9463000C940000D2
:1000800084B1806284B984B1817084B985B18160A2
:1000900085B995B180E2892785B9189B0AC02FEFF1
:1000A00089E698E1215080409040E1F700C00000CF
:1000B000F0CF2FEF83EC99E0215080409040E1F7A2
:0A00C00000C00000E6CFF894FFCF67
:00000001FF
