:100000000C9434000C943E000C943E000C943E0082
:100010000C943E000C943E000C943E000C943E0068
:100020000C943E000C943E000C943E000C943E0058
:100030000C943E000C943E000C943E000C943E0048
:100040000C943E000C943E000C943E000C943E0038
:100050000C943E000C943E000C943E000C943E0028
:100060000C943E000C943E0011241FBECFEFD8E04C
:10007000DEBFCDBF0E9440000C9456000C940000DF
:1000800084B1806284B98AB18F7E8AB98BB1806174
:100090008BB985B5866085BD16BC86B58530E8F31D
:1000A00095B180E2892785B916BCF7CFF894FFCFC8
:00000001FF
